{
  "contractName": "TaskManager",
  "abi": [
    {
      "inputs": [],
      "stateMutability": "nonpayable",
      "type": "constructor"
    },
    {
      "anonymous": false,
      "inputs": [
        {
          "indexed": true,
          "internalType": "uint256",
          "name": "taskId",
          "type": "uint256"
        },
        {
          "indexed": false,
          "internalType": "uint256",
          "name": "timestamp",
          "type": "uint256"
        }
      ],
      "name": "TaskCompleted",
      "type": "event"
    },
    {
      "anonymous": false,
      "inputs": [
        {
          "indexed": true,
          "internalType": "uint256",
          "name": "taskId",
          "type": "uint256"
        },
        {
          "indexed": false,
          "internalType": "string",
          "name": "description",
          "type": "string"
        },
        {
          "indexed": false,
          "internalType": "uint256",
          "name": "timestamp",
          "type": "uint256"
        }
      ],
      "name": "TaskCreated",
      "type": "event"
    },
    {
      "anonymous": false,
      "inputs": [
        {
          "indexed": true,
          "internalType": "uint256",
          "name": "taskId",
          "type": "uint256"
        },
        {
          "indexed": false,
          "internalType": "string",
          "name": "newDescription",
          "type": "string"
        },
        {
          "indexed": false,
          "internalType": "uint256",
          "name": "timestamp",
          "type": "uint256"
        }
      ],
      "name": "TaskUpdated",
      "type": "event"
    },
    {
      "inputs": [],
      "name": "owner",
      "outputs": [
        {
          "internalType": "address",
          "name": "",
          "type": "address"
        }
      ],
      "stateMutability": "view",
      "type": "function"
    },
    {
      "inputs": [],
      "name": "taskCounter",
      "outputs": [
        {
          "internalType": "uint256",
          "name": "",
          "type": "uint256"
        }
      ],
      "stateMutability": "view",
      "type": "function"
    },
    {
      "inputs": [
        {
          "internalType": "uint256",
          "name": "",
          "type": "uint256"
        }
      ],
      "name": "tasks",
      "outputs": [
        {
          "internalType": "uint256",
          "name": "id",
          "type": "uint256"
        },
        {
          "internalType": "string",
          "name": "description",
          "type": "string"
        },
        {
          "internalType": "bool",
          "name": "isCompleted",
          "type": "bool"
        },
        {
          "internalType": "uint256",
          "name": "createdAt",
          "type": "uint256"
        },
        {
          "internalType": "uint256",
          "name": "completedAt",
          "type": "uint256"
        }
      ],
      "stateMutability": "view",
      "type": "function"
    },
    {
      "inputs": [
        {
          "internalType": "address",
          "name": "",
          "type": "address"
        }
      ],
      "name": "userTaskCount",
      "outputs": [
        {
          "internalType": "uint256",
          "name": "",
          "type": "uint256"
        }
      ],
      "stateMutability": "view",
      "type": "function"
    },
    {
      "inputs": [
        {
          "internalType": "string",
          "name": "_description",
          "type": "string"
        }
      ],
      "name": "createTask",
      "outputs": [
        {
          "internalType": "uint256",
          "name": "",
          "type": "uint256"
        }
      ],
      "stateMutability": "nonpayable",
      "type": "function"
    },
    {
      "inputs": [
        {
          "internalType": "uint256",
          "name": "_taskId",
          "type": "uint256"
        }
      ],
      "name": "getTask",
      "outputs": [
        {
          "components": [
            {
              "internalType": "uint256",
              "name": "id",
              "type": "uint256"
            },
            {
              "internalType": "string",
              "name": "description",
              "type": "string"
            },
            {
              "internalType": "bool",
              "name": "isCompleted",
              "type": "bool"
            },
            {
              "internalType": "uint256",
              "name": "createdAt",
              "type": "uint256"
            },
            {
              "internalType": "uint256",
              "name": "completedAt",
              "type": "uint256"
            }
          ],
          "internalType": "struct TaskManager.Task",
          "name": "",
          "type": "tuple"
        }
      ],
      "stateMutability": "view",
      "type": "function"
    },
    {
      "inputs": [
        {
          "internalType": "uint256",
          "name": "_taskId",
          "type": "uint256"
        }
      ],
      "name": "completeTask",
      "outputs": [],
      "stateMutability": "nonpayable",
      "type": "function"
    },
    {
      "inputs": [
        {
          "internalType": "uint256",
          "name": "_taskId",
          "type": "uint256"
        },
        {
          "internalType": "string",
          "name": "_newDescription",
          "type": "string"
        }
      ],
      "name": "updateTask",
      "outputs": [],
      "stateMutability": "nonpayable",
      "type": "function"
    },
    {
      "inputs": [],
      "name": "getTotalTasks",
      "outputs": [
        {
          "internalType": "uint256",
          "name": "",
          "type": "uint256"
        }
      ],
      "stateMutability": "view",
      "type": "function"
    },
    {
      "inputs": [],
      "name": "getOwnerTaskCount",
      "outputs": [
        {
          "internalType": "uint256",
          "name": "",
          "type": "uint256"
        }
      ],
      "stateMutability": "view",
      "type": "function"
    },
    {
      "inputs": [
        {
          "internalType": "address",
          "name": "_newOwner",
          "type": "address"
        }
      ],
      "name": "transferOwnership",
      "outputs": [],
      "stateMutability": "nonpayable",
      "type": "function"
    }
  ],
  "bytecode": "0x608060405234801561001057600080fd5b50336000806101000a81548173ffffffffffffffffffffffffffffffffffffffff021916908373ffffffffffffffffffffffffffffffffffffffff16021790555060006001819055506118e8806100686000396000f3fe608060405234801561001057600080fd5b50600436106100c6576000357c0100000000000000000000000000000000000000000000000000000000900480636743a1c31161008e5780636743a1c31461019757806386533f6c146101b55780638d977672146101d15780638da5cb5b14610205578063e1e2955814610223578063f2fde38b1461023f576100c6565b8063111002aa146100cb5780631d65e77e146100fb5780633c93b9051461012b578063586717301461014957806358f9e74114610167575b600080fd5b6100e560048036038101906100e09190610e0c565b61025b565b6040516100f29190610e6e565b60405180910390f35b61011560048036038101906101109190610eb5565b6104c2565b6040516101229190611001565b60405180910390f35b61013361060d565b6040516101409190610e6e565b60405180910390f35b610151610617565b60405161015e9190610e6e565b60405180910390f35b610181600480360381019061017c9190611081565b61061d565b60405161018e9190610e6e565b60405180910390f35b61019f610635565b6040516101ac9190610e6e565b60405180910390f35b6101cf60048036038101906101ca91906110ae565b61069d565b005b6101eb60048036038101906101e69190610eb5565b610888565b6040516101fc959493929190611163565b60405180910390f35b61020d610953565b60405161021a91906111cc565b60405180910390f35b61023d60048036038101906102389190610eb5565b610977565b005b61025960048036038101906102549190611081565b610b41565b005b60008060009054906101000a900473ffffffffffffffffffffffffffffffffffffffff1673ffffffffffffffffffffffffffffffffffffffff163373ffffffffffffffffffffffffffffffffffffffff16146102ec576040517f08c379a00000000000000000000000000000000000000000000000000000000081526004016102e390611259565b60405180910390fd5b6000825111610330576040517f08c379a0000000000000000000000000000000000000000000000000000000008152600401610327906112c5565b60405180910390fd5b61010082511115610376576040517f08c379a000000000000000000000000000000000000000000000000000000000815260040161036d90611331565b60405180910390fd5b6001600081548092919061038990611380565b91905055506040518060a00160405280600154815260200183815260200160001515815260200142815260200160008152506002600060015481526020019081526020016000206000820151816000015560208201518160010190816103ef91906115da565b5060408201518160020160006101000a81548160ff0219169083151502179055506060820151816003015560808201518160040155905050600360003373ffffffffffffffffffffffffffffffffffffffff1673ffffffffffffffffffffffffffffffffffffffff168152602001908152602001600020600081548092919061047790611380565b91905055506001547f146b4b2e55f6b6a4a8ac8239494150cd5f96b163e2d019440f369714f4a31eb883426040516104b09291906116ac565b60405180910390a26001549050919050565b6104ca610c81565b816000811180156104dd57506001548111155b61051c576040517f08c379a000000000000000000000000000000000000000000000000000000000815260040161051390611728565b60405180910390fd5b600260008481526020019081526020016000206040518060a001604052908160008201548152602001600182018054610554906113f7565b80601f0160208091040260200160405190810160405280929190818152602001828054610580906113f7565b80156105cd5780601f106105a2576101008083540402835291602001916105cd565b820191906000526020600020905b8154815290600101906020018083116105b057829003601f168201915b505050505081526020016002820160009054906101000a900460ff1615151515815260200160038201548152602001600482015481525050915050919050565b6000600154905090565b60015481565b60036020528060005260406000206000915090505481565b6000600360008060009054906101000a900473ffffffffffffffffffffffffffffffffffffffff1673ffffffffffffffffffffffffffffffffffffffff1673ffffffffffffffffffffffffffffffffffffffff16815260200190815260200160002054905090565b60008054906101000a900473ffffffffffffffffffffffffffffffffffffffff1673ffffffffffffffffffffffffffffffffffffffff163373ffffffffffffffffffffffffffffffffffffffff161461072b576040517f08c379a000000000000000000000000000000000000000000000000000000000815260040161072290611259565b60405180910390fd5b8160008111801561073e57506001548111155b61077d576040517f08c379a000000000000000000000000000000000000000000000000000000000815260040161077490611728565b60405180910390fd5b60008251116107c1576040517f08c379a00000000000000000000000000000000000000000000000000000000081526004016107b8906112c5565b60405180910390fd5b6002600084815260200190815260200160002060020160009054906101000a900460ff1615610825576040517f08c379a000000000000000000000000000000000000000000000000000000000815260040161081c906117ba565b60405180910390fd5b8160026000858152602001908152602001600020600101908161084891906115da565b50827f8b2f58324cc9375d2dbc2e7d5693676bd60c27335b5e4158ba182dc2ab4a5d06834260405161087b9291906116ac565b60405180910390a2505050565b60026020528060005260406000206000915090508060000154908060010180546108b1906113f7565b80601f01602080910402602001604051908101604052809291908181526020018280546108dd906113f7565b801561092a5780601f106108ff5761010080835404028352916020019161092a565b820191906000526020600020905b81548152906001019060200180831161090d57829003601f168201915b5050505050908060020160009054906101000a900460ff16908060030154908060040154905085565b60008054906101000a900473ffffffffffffffffffffffffffffffffffffffff1681565b60008054906101000a900473ffffffffffffffffffffffffffffffffffffffff1673ffffffffffffffffffffffffffffffffffffffff163373ffffffffffffffffffffffffffffffffffffffff1614610a05576040517f08c379a00000000000000000000000000000000000000000000000000000000081526004016109fc90611259565b60405180910390fd5b80600081118015610a1857506001548111155b610a57576040517f08c379a0000000000000000000000000000000000000000000000000000000008152600401610a4e90611728565b60405180910390fd5b6002600083815260200190815260200160002060020160009054906101000a900460ff1615610abb576040517f08c379a0000000000000000000000000000000000000000000000000000000008152600401610ab290611826565b60405180910390fd5b60016002600084815260200190815260200160002060020160006101000a81548160ff021916908315150217905550426002600084815260200190815260200160002060040181905550817ff9c405f91e34dcd1dc136cf6992ada4a8c24a2803e0fab7546364c64dac7ba2b42604051610b359190610e6e565b60405180910390a25050565b60008054906101000a900473ffffffffffffffffffffffffffffffffffffffff1673ffffffffffffffffffffffffffffffffffffffff163373ffffffffffffffffffffffffffffffffffffffff1614610bcf576040517f08c379a0000000000000000000000000000000000000000000000000000000008152600401610bc690611259565b60405180910390fd5b600073ffffffffffffffffffffffffffffffffffffffff168173ffffffffffffffffffffffffffffffffffffffff1603610c3e576040517f08c379a0000000000000000000000000000000000000000000000000000000008152600401610c3590611892565b60405180910390fd5b806000806101000a81548173ffffffffffffffffffffffffffffffffffffffff021916908373ffffffffffffffffffffffffffffffffffffffff16021790555050565b6040518060a00160405280600081526020016060815260200160001515815260200160008152602001600081525090565b6000604051905090565b600080fd5b600080fd5b600080fd5b600080fd5b6000601f19601f8301169050919050565b7f4e487b7100000000000000000000000000000000000000000000000000000000600052604160045260246000fd5b610d1982610cd0565b810181811067ffffffffffffffff82111715610d3857610d37610ce1565b5b80604052505050565b6000610d4b610cb2565b9050610d578282610d10565b919050565b600067ffffffffffffffff821115610d7757610d76610ce1565b5b610d8082610cd0565b9050602081019050919050565b82818337600083830152505050565b6000610daf610daa84610d5c565b610d41565b905082815260208101848484011115610dcb57610dca610ccb565b5b610dd6848285610d8d565b509392505050565b600082601f830112610df357610df2610cc6565b5b8135610e03848260208601610d9c565b91505092915050565b600060208284031215610e2257610e21610cbc565b5b600082013567ffffffffffffffff811115610e4057610e3f610cc1565b5b610e4c84828501610dde565b91505092915050565b6000819050919050565b610e6881610e55565b82525050565b6000602082019050610e836000830184610e5f565b92915050565b610e9281610e55565b8114610e9d57600080fd5b50565b600081359050610eaf81610e89565b92915050565b600060208284031215610ecb57610eca610cbc565b5b6000610ed984828501610ea0565b91505092915050565b610eeb81610e55565b82525050565b600081519050919050565b600082825260208201905092915050565b60005b83811015610f2b578082015181840152602081019050610f10565b60008484015250505050565b6000610f4282610ef1565b610f4c8185610efc565b9350610f5c818560208601610f0d565b610f6581610cd0565b840191505092915050565b60008115159050919050565b610f8581610f70565b82525050565b600060a083016000830151610fa36000860182610ee2565b5060208301518482036020860152610fbb8282610f37565b9150506040830151610fd06040860182610f7c565b506060830151610fe36060860182610ee2565b506080830151610ff66080860182610ee2565b508091505092915050565b6000602082019050818103600083015261101b8184610f8b565b905092915050565b600073ffffffffffffffffffffffffffffffffffffffff82169050919050565b600061104e82611023565b9050919050565b61105e81611043565b811461106957600080fd5b50565b60008135905061107b81611055565b92915050565b60006020828403121561109757611096610cbc565b5b60006110a58482850161106c565b91505092915050565b600080604083850312156110c5576110c4610cbc565b5b60006110d385828601610ea0565b925050602083013567ffffffffffffffff8111156110f4576110f3610cc1565b5b61110085828601610dde565b9150509250929050565b600082825260208201905092915050565b600061112682610ef1565b611130818561110a565b9350611140818560208601610f0d565b61114981610cd0565b840191505092915050565b61115d81610f70565b82525050565b600060a0820190506111786000830188610e5f565b818103602083015261118a818761111b565b90506111996040830186611154565b6111a66060830185610e5f565b6111b36080830184610e5f565b9695505050505050565b6111c681611043565b82525050565b60006020820190506111e160008301846111bd565b92915050565b7f4f6e6c7920636f6e7472616374206f776e65722063616e20706572666f726d2060008201527f7468697320616374696f6e2e0000000000000000000000000000000000000000602082015250565b6000611243602c8361110a565b915061124e826111e7565b604082019050919050565b6000602082019050818103600083015261127281611236565b9050919050565b7f4465736372697074696f6e2063616e6e6f7420626520656d7074792e00000000600082015250565b60006112af601c8361110a565b91506112ba82611279565b602082019050919050565b600060208201905081810360008301526112de816112a2565b9050919050565b7f4465736372697074696f6e20697320746f6f206c6f6e672e0000000000000000600082015250565b600061131b60188361110a565b9150611326826112e5565b602082019050919050565b6000602082019050818103600083015261134a8161130e565b9050919050565b7f4e487b7100000000000000000000000000000000000000000000000000000000600052601160045260246000fd5b600061138b82610e55565b91507fffffffffffffffffffffffffffffffffffffffffffffffffffffffffffffffff82036113bd576113bc611351565b5b600182019050919050565b7f4e487b7100000000000000000000000000000000000000000000000000000000600052602260045260246000fd5b6000600282049050600182168061140f57607f821691505b602082108103611422576114216113c8565b5b50919050565b60008190508160005260206000209050919050565b60006020601f8301049050919050565b60008160020a8302905092915050565b60006008830261148d7fffffffffffffffffffffffffffffffffffffffffffffffffffffffffffffffff8261144d565b611497868361144d565b95508019841693508086168417925050509392505050565b6000819050919050565b60006114d46114cf6114ca84610e55565b6114af565b610e55565b9050919050565b6000819050919050565b6114ee836114b9565b6115026114fa826114db565b84845461145d565b825550505050565b600090565b61151761150a565b6115228184846114e5565b505050565b5b818110156115465761153b60008261150f565b600181019050611528565b5050565b601f82111561158b5761155c81611428565b6115658461143d565b81016020851015611574578190505b6115886115808561143d565b830182611527565b50505b505050565b60008160020a8304905092915050565b60006115b160001984600802611590565b1980831691505092915050565b60006115ca83836115a0565b9150826002028217905092915050565b6115e382610ef1565b67ffffffffffffffff8111156115fc576115fb610ce1565b5b61160682546113f7565b61161182828561154a565b600060209050601f8311600181146116445760008415611632578287015190505b61163c85826115be565b8655506116a4565b601f19841661165286611428565b60005b8281101561167a57848901518255600182019150602085019450602081019050611655565b868310156116975784890151611693601f8916826115a0565b8355505b6001600288020188555050505b505050505050565b600060408201905081810360008301526116c6818561111b565b90506116d56020830184610e5f565b9392505050565b7f5461736b20646f6573206e6f742065786973742e000000000000000000000000600082015250565b600061171260148361110a565b915061171d826116dc565b602082019050919050565b6000602082019050818103600083015261174181611705565b9050919050565b7f436f6d706c65746564207461736b2063616e6e6f74206265207570646174656460008201527f2e00000000000000000000000000000000000000000000000000000000000000602082015250565b60006117a460218361110a565b91506117af82611748565b604082019050919050565b600060208201905081810360008301526117d381611797565b9050919050565b7f5461736b20616c726561647920636f6d706c657465642e000000000000000000600082015250565b600061181060178361110a565b915061181b826117da565b602082019050919050565b6000602082019050818103600083015261183f81611803565b9050919050565b7f496e76616c696420616464726573732e00000000000000000000000000000000600082015250565b600061187c60108361110a565b915061188782611846565b602082019050919050565b600060208201905081810360008301526118ab8161186f565b905091905056fea26469706673582212207cf98bd26601e67f4b72c71c23fe1895c4558e5093b45d165f22c9114866792264736f6c63430008150033",
  "immutableReferences": {},
  "source": "// SPDX-License-Identifier: MIT\r\npragma solidity ^0.8.0;\r\n\r\ncontract TaskManager {\r\n\r\n    // =========================\r\n    // State Variables\r\n    // =========================\r\n\r\n    address public owner;\r\n    uint256 public taskCounter;\r\n\r\n    struct Task {\r\n        uint256 id;\r\n        string description;\r\n        bool isCompleted;\r\n        uint256 createdAt;\r\n        uint256 completedAt;\r\n    }\r\n\r\n    mapping(uint256 => Task) public tasks;\r\n    mapping(address => uint256) public userTaskCount;\r\n\r\n    // =========================\r\n    // Events\r\n    // =========================\r\n\r\n    event TaskCreated(\r\n        uint256 indexed taskId,\r\n        string description,\r\n        uint256 timestamp\r\n    );\r\n\r\n    event TaskCompleted(\r\n        uint256 indexed taskId,\r\n        uint256 timestamp\r\n    );\r\n\r\n    event TaskUpdated(\r\n        uint256 indexed taskId,\r\n        string newDescription,\r\n        uint256 timestamp\r\n    );\r\n\r\n    // =========================\r\n    // Constructor\r\n    // =========================\r\n\r\n    constructor() {\r\n        owner = msg.sender;\r\n        taskCounter = 0;\r\n    }\r\n\r\n    // =========================\r\n    // Modifiers\r\n    // =========================\r\n\r\n    modifier onlyOwner() {\r\n        require(\r\n            msg.sender == owner,\r\n            \"Only contract owner can perform this action.\"\r\n        );\r\n        _;\r\n    }\r\n\r\n    modifier taskExists(uint256 _taskId) {\r\n        require(\r\n            _taskId > 0 && _taskId <= taskCounter,\r\n            \"Task does not exist.\"\r\n        );\r\n        _;\r\n    }\r\n\r\n    // =========================\r\n    // Create Task\r\n    // =========================\r\n\r\n    function createTask(string memory _description)\r\n        public\r\n        onlyOwner\r\n        returns (uint256)\r\n    {\r\n        require(\r\n            bytes(_description).length > 0,\r\n            \"Description cannot be empty.\"\r\n        );\r\n\r\n        require(\r\n            bytes(_description).length <= 256,\r\n            \"Description is too long.\"\r\n        );\r\n\r\n        taskCounter++;\r\n\r\n        tasks[taskCounter] = Task({\r\n            id: taskCounter,\r\n            description: _description,\r\n            isCompleted: false,\r\n            createdAt: block.timestamp,\r\n            completedAt: 0\r\n        });\r\n\r\n        userTaskCount[msg.sender]++;\r\n\r\n        emit TaskCreated(\r\n            taskCounter,\r\n            _description,\r\n            block.timestamp\r\n        );\r\n\r\n        return taskCounter;\r\n    }\r\n\r\n    // =========================\r\n    // Get Task\r\n    // =========================\r\n\r\n    function getTask(uint256 _taskId)\r\n        public\r\n        view\r\n        taskExists(_taskId)\r\n        returns (Task memory)\r\n    {\r\n        return tasks[_taskId];\r\n    }\r\n\r\n    // =========================\r\n    // Complete Task\r\n    // =========================\r\n\r\n    function completeTask(uint256 _taskId)\r\n        public\r\n        onlyOwner\r\n        taskExists(_taskId)\r\n    {\r\n        require(\r\n            !tasks[_taskId].isCompleted,\r\n            \"Task already completed.\"\r\n        );\r\n\r\n        tasks[_taskId].isCompleted = true;\r\n        tasks[_taskId].completedAt = block.timestamp;\r\n\r\n        emit TaskCompleted(\r\n            _taskId,\r\n            block.timestamp\r\n        );\r\n    }\r\n\r\n    // =========================\r\n    // Update Task\r\n    // =========================\r\n\r\n    function updateTask(\r\n        uint256 _taskId,\r\n        string memory _newDescription\r\n    )\r\n        public\r\n        onlyOwner\r\n        taskExists(_taskId)\r\n    {\r\n        require(\r\n            bytes(_newDescription).length > 0,\r\n            \"Description cannot be empty.\"\r\n        );\r\n\r\n        require(\r\n            !tasks[_taskId].isCompleted,\r\n            \"Completed task cannot be updated.\"\r\n        );\r\n\r\n        tasks[_taskId].description = _newDescription;\r\n\r\n        emit TaskUpdated(\r\n            _taskId,\r\n            _newDescription,\r\n            block.timestamp\r\n        );\r\n    }\r\n\r\n    // =========================\r\n    // Total Tasks\r\n    // =========================\r\n\r\n    function getTotalTasks()\r\n        public\r\n        view\r\n        returns (uint256)\r\n    {\r\n        return taskCounter;\r\n    }\r\n\r\n    // =========================\r\n    // Owner Task Count\r\n    // =========================\r\n\r\n    function getOwnerTaskCount()\r\n        public\r\n        view\r\n        returns (uint256)\r\n    {\r\n        return userTaskCount[owner];\r\n    }\r\n\r\n    // =========================\r\n    // Transfer Ownership\r\n    // =========================\r\n\r\n    function transferOwnership(address _newOwner)\r\n        public\r\n        onlyOwner\r\n    {\r\n        require(\r\n            _newOwner != address(0),\r\n            \"Invalid address.\"\r\n        );\r\n\r\n        owner = _newOwner;\r\n    }\r\n}",
  "sourcePath": "D:\\chain\\contracts\\TaskManager.sol",
  "compiler": {
    "name": "solc",
    "version": "0.8.21+commit.d9974bed.Emscripten.clang"
  },
  "schemaVersion": "3.4.16",
  "updatedAt": "2026-07-01T09:56:10.099Z",
  "devdoc": {
    "kind": "dev",
    "methods": {},
    "version": 1
  },
  "userdoc": {
    "kind": "user",
    "methods": {},
    "version": 1
  }
}