{
  "contractName": "Voting",
  "abi": [
    {
      "inputs": [],
      "stateMutability": "nonpayable",
      "type": "constructor"
    },
    {
      "anonymous": false,
      "inputs": [
        {
          "indexed": false,
          "internalType": "string",
          "name": "name",
          "type": "string"
        }
      ],
      "name": "CandidateAdded",
      "type": "event"
    },
    {
      "anonymous": false,
      "inputs": [
        {
          "indexed": false,
          "internalType": "address",
          "name": "voter",
          "type": "address"
        },
        {
          "indexed": false,
          "internalType": "string",
          "name": "candidateName",
          "type": "string"
        }
      ],
      "name": "Voted",
      "type": "event"
    },
    {
      "anonymous": false,
      "inputs": [],
      "name": "VotingEnded",
      "type": "event"
    },
    {
      "anonymous": false,
      "inputs": [],
      "name": "VotingStarted",
      "type": "event"
    },
    {
      "inputs": [
        {
          "internalType": "uint256",
          "name": "",
          "type": "uint256"
        }
      ],
      "name": "candidates",
      "outputs": [
        {
          "internalType": "string",
          "name": "name",
          "type": "string"
        },
        {
          "internalType": "uint256",
          "name": "voteCount",
          "type": "uint256"
        }
      ],
      "stateMutability": "view",
      "type": "function"
    },
    {
      "inputs": [],
      "name": "owner",
      "outputs": [
        {
          "internalType": "address",
          "name": "",
          "type": "address"
        }
      ],
      "stateMutability": "view",
      "type": "function"
    },
    {
      "inputs": [
        {
          "internalType": "address",
          "name": "",
          "type": "address"
        }
      ],
      "name": "voters",
      "outputs": [
        {
          "internalType": "bool",
          "name": "",
          "type": "bool"
        }
      ],
      "stateMutability": "view",
      "type": "function"
    },
    {
      "inputs": [],
      "name": "votingActive",
      "outputs": [
        {
          "internalType": "bool",
          "name": "",
          "type": "bool"
        }
      ],
      "stateMutability": "view",
      "type": "function"
    },
    {
      "inputs": [
        {
          "internalType": "string",
          "name": "name",
          "type": "string"
        }
      ],
      "name": "addCandidate",
      "outputs": [],
      "stateMutability": "nonpayable",
      "type": "function"
    },
    {
      "inputs": [],
      "name": "startVoting",
      "outputs": [],
      "stateMutability": "nonpayable",
      "type": "function"
    },
    {
      "inputs": [],
      "name": "endVoting",
      "outputs": [],
      "stateMutability": "nonpayable",
      "type": "function"
    },
    {
      "inputs": [
        {
          "internalType": "uint256",
          "name": "candidateIndex",
          "type": "uint256"
        }
      ],
      "name": "vote",
      "outputs": [],
      "stateMutability": "nonpayable",
      "type": "function"
    },
    {
      "inputs": [],
      "name": "getCandidates",
      "outputs": [
        {
          "components": [
            {
              "internalType": "string",
              "name": "name",
              "type": "string"
            },
            {
              "internalType": "uint256",
              "name": "voteCount",
              "type": "uint256"
            }
          ],
          "internalType": "struct Voting.Candidate[]",
          "name": "",
          "type": "tuple[]"
        }
      ],
      "stateMutability": "view",
      "type": "function"
    },
    {
      "inputs": [
        {
          "internalType": "address",
          "name": "voter",
          "type": "address"
        }
      ],
      "name": "hasVoted",
      "outputs": [
        {
          "internalType": "bool",
          "name": "",
          "type": "bool"
        }
      ],
      "stateMutability": "view",
      "type": "function"
    },
    {
      "inputs": [],
      "name": "getResults",
      "outputs": [
        {
          "internalType": "string[]",
          "name": "",
          "type": "string[]"
        },
        {
          "internalType": "uint256[]",
          "name": "",
          "type": "uint256[]"
        }
      ],
      "stateMutability": "view",
      "type": "function"
    }
  ],
  "bytecode": "0x608060405234801561001057600080fd5b50336000806101000a81548173ffffffffffffffffffffffffffffffffffffffff021916908373ffffffffffffffffffffffffffffffffffffffff1602179055506000600360006101000a81548160ff021916908315150217905550611b4e8061007b6000396000f3fe608060405234801561001057600080fd5b50600436106100c6576000357c010000000000000000000000000000000000000000000000000000000090048063408e27271161008e578063408e272714610170578063462e91ec1461018e5780634717f97c146101aa5780638da5cb5b146101c9578063a3ec138d146101e7578063c3403ddf14610217576100c6565b80630121b93f146100cb57806306a49fce146100e757806309eef43e146101055780631ec6b60a146101355780633477ee2e1461013f575b600080fd5b6100e560048036038101906100e09190610ce3565b610221565b005b6100ef610438565b6040516100fc9190610eae565b60405180910390f35b61011f600480360381019061011a9190610f2e565b610533565b60405161012c9190610f76565b60405180910390f35b61013d610589565b005b61015960048036038101906101549190610ce3565b6106f8565b604051610167929190610fea565b60405180910390f35b6101786107b4565b6040516101859190610f76565b60405180910390f35b6101a860048036038101906101a3919061114f565b6107c7565b005b6101b2610942565b6040516101c0929190611309565b60405180910390f35b6101d1610b2f565b6040516101de919061134f565b60405180910390f35b61020160048036038101906101fc9190610f2e565b610b53565b60405161020e9190610f76565b60405180910390f35b61021f610b73565b005b600360009054906101000a900460ff16610270576040517f08c379a0000000000000000000000000000000000000000000000000000000008152600401610267906113b6565b60405180910390fd5b600160003373ffffffffffffffffffffffffffffffffffffffff1673ffffffffffffffffffffffffffffffffffffffff16815260200190815260200160002060009054906101000a900460ff16156102fd576040517f08c379a00000000000000000000000000000000000000000000000000000000081526004016102f490611422565b60405180910390fd5b6002805490508110610344576040517f08c379a000000000000000000000000000000000000000000000000000000000815260040161033b9061148e565b60405180910390fd5b60018060003373ffffffffffffffffffffffffffffffffffffffff1673ffffffffffffffffffffffffffffffffffffffff16815260200190815260200160002060006101000a81548160ff0219169083151502179055506001600282815481106103b1576103b06114ae565b5b906000526020600020906002020160010160008282546103d1919061150c565b925050819055507fcb6783276e8a4347387036bbfea000268f0a4b1f8c46ac79980609f2af8d2acd336002838154811061040e5761040d6114ae565b5b906000526020600020906002020160000160405161042d929190611639565b60405180910390a150565b60606002805480602002602001604051908101604052809291908181526020016000905b8282101561052a578382906000526020600020906002020160405180604001604052908160008201805461048f9061156f565b80601f01602080910402602001604051908101604052809291908181526020018280546104bb9061156f565b80156105085780601f106104dd57610100808354040283529160200191610508565b820191906000526020600020905b8154815290600101906020018083116104eb57829003601f168201915b505050505081526020016001820154815250508152602001906001019061045c565b50505050905090565b6000600160008373ffffffffffffffffffffffffffffffffffffffff1673ffffffffffffffffffffffffffffffffffffffff16815260200190815260200160002060009054906101000a900460ff169050919050565b60008054906101000a900473ffffffffffffffffffffffffffffffffffffffff1673ffffffffffffffffffffffffffffffffffffffff163373ffffffffffffffffffffffffffffffffffffffff1614610617576040517f08c379a000000000000000000000000000000000000000000000000000000000815260040161060e906116b5565b60405180910390fd5b600360009054906101000a900460ff1615610667576040517f08c379a000000000000000000000000000000000000000000000000000000000815260040161065e90611721565b60405180910390fd5b6000600280549050116106af576040517f08c379a00000000000000000000000000000000000000000000000000000000081526004016106a69061178d565b60405180910390fd5b6001600360006101000a81548160ff0219169083151502179055507f877e2548498f42b7975a186b94ef1d32c86d420b7b806dd2be2bea293b89590460405160405180910390a1565b6002818154811061070857600080fd5b906000526020600020906002020160009150905080600001805461072b9061156f565b80601f01602080910402602001604051908101604052809291908181526020018280546107579061156f565b80156107a45780601f10610779576101008083540402835291602001916107a4565b820191906000526020600020905b81548152906001019060200180831161078757829003601f168201915b5050505050908060010154905082565b600360009054906101000a900460ff1681565b60008054906101000a900473ffffffffffffffffffffffffffffffffffffffff1673ffffffffffffffffffffffffffffffffffffffff163373ffffffffffffffffffffffffffffffffffffffff1614610855576040517f08c379a000000000000000000000000000000000000000000000000000000000815260040161084c906116b5565b60405180910390fd5b600360009054906101000a900460ff16156108a5576040517f08c379a000000000000000000000000000000000000000000000000000000000815260040161089c9061181f565b60405180910390fd5b600260405180604001604052808381526020016000815250908060018154018082558091505060019003906000526020600020906002020160009091909190915060008201518160000190816108fb91906119dc565b506020820151816001015550507ff29562dad1599aea0ebb142466120aab326d5efa8f839df82a9c064bf78e8938816040516109379190611aae565b60405180910390a150565b606080600060028054905067ffffffffffffffff81111561096657610965611024565b5b60405190808252806020026020018201604052801561099957816020015b60608152602001906001900390816109845790505b509050600060028054905067ffffffffffffffff8111156109bd576109bc611024565b5b6040519080825280602002602001820160405280156109eb5781602001602082028036833780820191505090505b50905060005b600280549050811015610b225760028181548110610a1257610a116114ae565b5b90600052602060002090600202016000018054610a2e9061156f565b80601f0160208091040260200160405190810160405280929190818152602001828054610a5a9061156f565b8015610aa75780601f10610a7c57610100808354040283529160200191610aa7565b820191906000526020600020905b815481529060010190602001808311610a8a57829003601f168201915b5050505050838281518110610abf57610abe6114ae565b5b602002602001018190525060028181548110610ade57610add6114ae565b5b906000526020600020906002020160010154828281518110610b0357610b026114ae565b5b6020026020010181815250508080610b1a90611ad0565b9150506109f1565b5081819350935050509091565b60008054906101000a900473ffffffffffffffffffffffffffffffffffffffff1681565b60016020528060005260406000206000915054906101000a900460ff1681565b60008054906101000a900473ffffffffffffffffffffffffffffffffffffffff1673ffffffffffffffffffffffffffffffffffffffff163373ffffffffffffffffffffffffffffffffffffffff1614610c01576040517f08c379a0000000000000000000000000000000000000000000000000000000008152600401610bf8906116b5565b60405180910390fd5b600360009054906101000a900460ff16610c50576040517f08c379a0000000000000000000000000000000000000000000000000000000008152600401610c47906113b6565b60405180910390fd5b6000600360006101000a81548160ff0219169083151502179055507f7a19ed057db79e3c2fa0b97a54b43bef4fce74b31bb6c01af514b9a18a7f70ab60405160405180910390a1565b6000604051905090565b600080fd5b600080fd5b6000819050919050565b610cc081610cad565b8114610ccb57600080fd5b50565b600081359050610cdd81610cb7565b92915050565b600060208284031215610cf957610cf8610ca3565b5b6000610d0784828501610cce565b91505092915050565b600081519050919050565b600082825260208201905092915050565b6000819050602082019050919050565b600081519050919050565b600082825260208201905092915050565b60005b83811015610d76578082015181840152602081019050610d5b565b60008484015250505050565b6000601f19601f8301169050919050565b6000610d9e82610d3c565b610da88185610d47565b9350610db8818560208601610d58565b610dc181610d82565b840191505092915050565b610dd581610cad565b82525050565b60006040830160008301518482036000860152610df88282610d93565b9150506020830151610e0d6020860182610dcc565b508091505092915050565b6000610e248383610ddb565b905092915050565b6000602082019050919050565b6000610e4482610d10565b610e4e8185610d1b565b935083602082028501610e6085610d2c565b8060005b85811015610e9c5784840389528151610e7d8582610e18565b9450610e8883610e2c565b925060208a01995050600181019050610e64565b50829750879550505050505092915050565b60006020820190508181036000830152610ec88184610e39565b905092915050565b600073ffffffffffffffffffffffffffffffffffffffff82169050919050565b6000610efb82610ed0565b9050919050565b610f0b81610ef0565b8114610f1657600080fd5b50565b600081359050610f2881610f02565b92915050565b600060208284031215610f4457610f43610ca3565b5b6000610f5284828501610f19565b91505092915050565b60008115159050919050565b610f7081610f5b565b82525050565b6000602082019050610f8b6000830184610f67565b92915050565b600082825260208201905092915050565b6000610fad82610d3c565b610fb78185610f91565b9350610fc7818560208601610d58565b610fd081610d82565b840191505092915050565b610fe481610cad565b82525050565b600060408201905081810360008301526110048185610fa2565b90506110136020830184610fdb565b9392505050565b600080fd5b600080fd5b7f4e487b7100000000000000000000000000000000000000000000000000000000600052604160045260246000fd5b61105c82610d82565b810181811067ffffffffffffffff8211171561107b5761107a611024565b5b80604052505050565b600061108e610c99565b905061109a8282611053565b919050565b600067ffffffffffffffff8211156110ba576110b9611024565b5b6110c382610d82565b9050602081019050919050565b82818337600083830152505050565b60006110f26110ed8461109f565b611084565b90508281526020810184848401111561110e5761110d61101f565b5b6111198482856110d0565b509392505050565b600082601f8301126111365761113561101a565b5b81356111468482602086016110df565b91505092915050565b60006020828403121561116557611164610ca3565b5b600082013567ffffffffffffffff81111561118357611182610ca8565b5b61118f84828501611121565b91505092915050565b600081519050919050565b600082825260208201905092915050565b6000819050602082019050919050565b60006111d08383610d93565b905092915050565b6000602082019050919050565b60006111f082611198565b6111fa81856111a3565b93508360208202850161120c856111b4565b8060005b85811015611248578484038952815161122985826111c4565b9450611234836111d8565b925060208a01995050600181019050611210565b50829750879550505050505092915050565b600081519050919050565b600082825260208201905092915050565b6000819050602082019050919050565b60006112928383610dcc565b60208301905092915050565b6000602082019050919050565b60006112b68261125a565b6112c08185611265565b93506112cb83611276565b8060005b838110156112fc5781516112e38882611286565b97506112ee8361129e565b9250506001810190506112cf565b5085935050505092915050565b6000604082019050818103600083015261132381856111e5565b9050818103602083015261133781846112ab565b90509392505050565b61134981610ef0565b82525050565b60006020820190506113646000830184611340565b92915050565b7f566f74696e67206973206e6f7420616374697665000000000000000000000000600082015250565b60006113a0601483610f91565b91506113ab8261136a565b602082019050919050565b600060208201905081810360008301526113cf81611393565b9050919050565b7f596f75206861766520616c726561647920766f74656400000000000000000000600082015250565b600061140c601683610f91565b9150611417826113d6565b602082019050919050565b6000602082019050818103600083015261143b816113ff565b9050919050565b7f496e76616c69642063616e646964617465000000000000000000000000000000600082015250565b6000611478601183610f91565b915061148382611442565b602082019050919050565b600060208201905081810360008301526114a78161146b565b9050919050565b7f4e487b7100000000000000000000000000000000000000000000000000000000600052603260045260246000fd5b7f4e487b7100000000000000000000000000000000000000000000000000000000600052601160045260246000fd5b600061151782610cad565b915061152283610cad565b925082820190508082111561153a576115396114dd565b5b92915050565b7f4e487b7100000000000000000000000000000000000000000000000000000000600052602260045260246000fd5b6000600282049050600182168061158757607f821691505b60208210810361159a57611599611540565b5b50919050565b60008190508160005260206000209050919050565b600081546115c28161156f565b6115cc8186610f91565b945060018216600081146115e757600181146115fd57611630565b60ff198316865281151560200286019350611630565b611606856115a0565b60005b8381101561162857815481890152600182019150602081019050611609565b808801955050505b50505092915050565b600060408201905061164e6000830185611340565b818103602083015261166081846115b5565b90509392505050565b7f4f6e6c79206f776e65722063616e2063616c6c20746869730000000000000000600082015250565b600061169f601883610f91565b91506116aa82611669565b602082019050919050565b600060208201905081810360008301526116ce81611692565b9050919050565b7f566f74696e6720616c7265616479206163746976650000000000000000000000600082015250565b600061170b601583610f91565b9150611716826116d5565b602082019050919050565b6000602082019050818103600083015261173a816116fe565b9050919050565b7f4e6f2063616e6469646174657320616464656400000000000000000000000000600082015250565b6000611777601383610f91565b915061178282611741565b602082019050919050565b600060208201905081810360008301526117a68161176a565b9050919050565b7f43616e6e6f74206164642063616e64696461746573207768696c6520766f746960008201527f6e67206973206163746976650000000000000000000000000000000000000000602082015250565b6000611809602c83610f91565b9150611814826117ad565b604082019050919050565b60006020820190508181036000830152611838816117fc565b9050919050565b60006020601f8301049050919050565b60008160020a8302905092915050565b60006008830261188f7fffffffffffffffffffffffffffffffffffffffffffffffffffffffffffffffff8261184f565b611899868361184f565b95508019841693508086168417925050509392505050565b6000819050919050565b60006118d66118d16118cc84610cad565b6118b1565b610cad565b9050919050565b6000819050919050565b6118f0836118bb565b6119046118fc826118dd565b84845461185f565b825550505050565b600090565b61191961190c565b6119248184846118e7565b505050565b5b818110156119485761193d600082611911565b60018101905061192a565b5050565b601f82111561198d5761195e816115a0565b6119678461183f565b81016020851015611976578190505b61198a6119828561183f565b830182611929565b50505b505050565b60008160020a8304905092915050565b60006119b360001984600802611992565b1980831691505092915050565b60006119cc83836119a2565b9150826002028217905092915050565b6119e582610d3c565b67ffffffffffffffff8111156119fe576119fd611024565b5b611a08825461156f565b611a1382828561194c565b600060209050601f831160018114611a465760008415611a34578287015190505b611a3e85826119c0565b865550611aa6565b601f198416611a54866115a0565b60005b82811015611a7c57848901518255600182019150602085019450602081019050611a57565b86831015611a995784890151611a95601f8916826119a2565b8355505b6001600288020188555050505b505050505050565b60006020820190508181036000830152611ac88184610fa2565b905092915050565b6000611adb82610cad565b91507fffffffffffffffffffffffffffffffffffffffffffffffffffffffffffffffff8203611b0d57611b0c6114dd565b5b60018201905091905056fea2646970667358221220a24ed54c34bb5f2eba9d0e6c390622aeacd5ab731310948ece227ecef455ee1464736f6c63430008150033",
  "immutableReferences": {},
  "source": "// SPDX-License-Identifier: MIT\r\npragma solidity ^0.8.0;\r\n\r\ncontract Voting {\r\n    struct Candidate {\r\n        string name;\r\n        uint256 voteCount;\r\n    }\r\n\r\n    address public owner;\r\n    mapping(address => bool) public voters;\r\n    Candidate[] public candidates;\r\n    bool public votingActive;\r\n\r\n    event Voted(address voter, string candidateName);\r\n    event CandidateAdded(string name);\r\n    event VotingStarted();\r\n    event VotingEnded();\r\n\r\n    modifier onlyOwner() {\r\n        require(msg.sender == owner, \"Only owner can call this\");\r\n        _;\r\n    }\r\n\r\n    modifier votingOpen() {\r\n        require(votingActive, \"Voting is not active\");\r\n        _;\r\n    }\r\n\r\n    constructor() {\r\n        owner = msg.sender;\r\n        votingActive = false;\r\n    }\r\n\r\n    function addCandidate(string memory name) public onlyOwner {\r\n        require(!votingActive, \"Cannot add candidates while voting is active\");\r\n        candidates.push(Candidate(name, 0));\r\n        emit CandidateAdded(name);\r\n    }\r\n\r\n    function startVoting() public onlyOwner {\r\n        require(!votingActive, \"Voting already active\");\r\n        require(candidates.length > 0, \"No candidates added\");\r\n        votingActive = true;\r\n        emit VotingStarted();\r\n    }\r\n\r\n    function endVoting() public onlyOwner {\r\n        require(votingActive, \"Voting is not active\");\r\n        votingActive = false;\r\n        emit VotingEnded();\r\n    }\r\n\r\n    function vote(uint256 candidateIndex) public votingOpen {\r\n        require(!voters[msg.sender], \"You have already voted\");\r\n        require(candidateIndex < candidates.length, \"Invalid candidate\");\r\n\r\n        voters[msg.sender] = true;\r\n        candidates[candidateIndex].voteCount += 1;\r\n\r\n        emit Voted(msg.sender, candidates[candidateIndex].name);\r\n    }\r\n\r\n    function getCandidates() public view returns (Candidate[] memory) {\r\n        return candidates;\r\n    }\r\n\r\n    function hasVoted(address voter) public view returns (bool) {\r\n        return voters[voter];\r\n    }\r\n\r\n    function getResults() public view returns (string[] memory, uint256[] memory) {\r\n        string[] memory names = new string[](candidates.length);\r\n        uint256[] memory counts = new uint256[](candidates.length);\r\n\r\n        for (uint256 i = 0; i < candidates.length; i++) {\r\n            names[i] = candidates[i].name;\r\n            counts[i] = candidates[i].voteCount;\r\n        }\r\n        return (names, counts);\r\n    }\r\n}",
  "sourcePath": "D:\\chain\\contracts\\Voting.sol",
  "compiler": {
    "name": "solc",
    "version": "0.8.21+commit.d9974bed.Emscripten.clang"
  },
  "schemaVersion": "3.4.16",
  "updatedAt": "2026-07-01T09:56:10.144Z",
  "devdoc": {
    "kind": "dev",
    "methods": {},
    "version": 1
  },
  "userdoc": {
    "kind": "user",
    "methods": {},
    "version": 1
  }
}